:040000000BEF34F0DE
:106816000001EDEF3AF09EAAFED7AE501200D58EDB
:1068260001C003F002C004F0031E041E034A042A3A
:1068360003C0D6FF04C0D7FFF2A4FED7F294D59EBC
:106846001200000E066E000E056E0BD005500124D8
:10685600D96E06500220DA6E0EEC34F0DF6E054A71
:10686600062A0350055C04500658D8B01200EED72D
:10687600000E0A6E08AE0AD0081E071E061E056C1C
:10688600000E062207220822010E0A6E04AE0AD066
:10689600041E031E021E016C000E022203220422A5
:1068A600010E0A1A000E0B6E000E0C6E000E0D6E17
:1068B600000E0E6E0550061007100810D8B42AD028
:1068C600010E096E06D0D89005360636073608360C
:1068D600092A08AEF8D7D8900B360C360D360E3688
:1068E6000550015C065002580750035808500458DA
:1068F600D8A009D00550015E0650025A0750035A27
:106906000850045A0B80D8900832073206320532F6
:10691600092EE1D70A50D8B408D00E1E0D1E0C1E43
:106926000B6C000E0C220D220E220BC001F00CC0C7
:1069360002F00DC003F00EC004F0120049344A34D0
:10694600506E5050D8A409D0000E476E000E486E07
:10695600000E496E000E4A6E120047C04BF048C04A
:106966004CF049C04DF04AC04EF0200E05D0D890EC
:106976004E324D324C324B32E82EF9D74B504F6ED9
:10698600498EFF0E4716FF0E4816FF0E4916000EDB
:106996004A16960E505E50AE16D05050800A970F8B
:1069A600D8B009D0000E476E000E486E000E496E34
:1069B600000E4A6E1200D8904A32493248324732A7
:1069C600503EF9D715D01F0E50640FD0000E476EFB
:1069D600000E486E000E496E000E4A6E1200D890E8
:1069E6004736483649364A3650065050D8A4F7D767
:1069F6004F50D8B408D04A1E491E481E476C000E98
:106A0600482249224A2247C047F048C048F049C0B8
:106A160049F04AC04AF012000FC013F010C014F03B
:106A260011C015F012C016F0060ED89013361436A3
:106A360015361636E82EF9D7131E141E151E161E09
:106A4600132A000E142215221622000E1324016E9C
:106A5600120E1420026E7A0E1520036E000E1620FA
:106A6600046E0FC017F010C018F011C019F012C054
:106A76001AF0060ED8901736183619361A36E82E3A
:106A8600F9D717C005F018C006F019C007F01AC0EC
:106A960008F03BEC34F001C01BF002C01CF01C04F3
:106AA600D8A044D00FC013F010C014F011C015F0D8
:106AB60012C016F0040ED890133614361536163654
:106AC600E82EF9D7131E141E151E161E132A000EC5
:106AD600142215221622000E1324016E120E142003
:106AE600026E7A0E1520036E000E1620046E0FC07D
:106AF60017F010C018F011C019F012C01AF0040EE9
:106B0600D8901736183619361A36E82EF9D717C020
:106B160005F018C006F019C007F01AC008F03BECE3
:106B260034F001C01BF002C01CF0AC841C04D8B0C9
:106B360012001BC0AFFFAC98AB8E948E948CAB88C2
:106B4600AC8A1200096E0950D8A404AE1AD001C04E
:106B560005F002C006F003C007F004C008F0051EE9
:106B6600061E071E081E052A000E062207220822F8
:106B760005C00BF006C00CF007C00DF008C00EF003
:106B860008D001C00BF002C00CF003C00DF004C029
:106B96000EF00150021003100410D8A409D0000E04
:106BA600016E000E026E000E036E000E046E1200E1
:106BB600960E0A6E06D00A2AD8900E320D320C3284
:106BC6000B32000E0B14056E000E0C14066E000E32
:106BD6000D14076EFE0E0E14086E055006100710F3
:106BE6000810D8B40DD0E7D70A2A010E0B26000EDE
:106BF6000C220D220E22D8900E320D320C320B32A0
:106C0600000E0B14056E000E0C14066E000E0D140D
:106C1600076EFF0E0E14086E0550061007100810BA
:106C2600D8B407D0E1D70A06D8900B360C360D3605
:106C36000E360DBE03D0020E0A60F5D70AB008D094
:106C4600FF0E0B16FF0E0C167F0E0D16FF0E0E1600
:106C5600D8900A320AC005F0066A076A086A05C0B3
:106C660008F0076A066A056A05500B1206500C12F0
:106C760007500D1208500E120950D8A404AE01D0C8
:106C86000E8E0BC001F00CC002F00DC003F00EC05A
:106C960004F012000450800B0D6E04500424186E8C
:106CA60003BE18801850D8B40DD01828D8A408D020
:106CB600000E016E000E026E000E036E000E046ED4
:106CC600038E06D0000E016E000E026E000E036EDD
:106CD600000E046E0850800B0D1A08500824196E19
:106CE60007BE19801950D8B40DD01928D8A408D0D9
:106CF600000E056E000E066E000E076E000E086E84
:106D0600078E06D0000E056E000E066E000E076E8C
:106D1600000E086E0550061007100810D8A415D0EE
:106D2600000E016E000E026E000E036E000E046E63
:106D3600800E03127F0E041201C001F002C002F0A1
:106D460003C003F004C004F012001850D8A411D0F8
:106D5600000E016E000E026E000E036E000E046E33
:106D660001C001F002C002F003C003F004C004F049
:106D760012001950096E0A6A091E0A1E094A0A2AD1
:106D860018500B6E0C6A09500B260A500C227F0E07
:106D96000B24126E000E0C20136E01C00EF002C002
:106DA6000FF003C010F004C011F0000E016E000ECB
:106DB600026E000E036E000E046E000E146E000EC0
:106DC600156E000E166E000E176E000E196E28D088
:106DD6001950D8B411D0D8900E360F361036113659
:106DE600D890013602360336043617BE0180D89095
:106DF600143615361636173605500E5C06500F58E3
:106E06000750105808501158D8A009D0178C0550B3
:106E16000E5E06500F5A0750105A0850115A192A7A
:106E2600190E1964D5D70E500F1010101110D8B4C2
:106E360011D014800FD0D8900136023603360436AE
:106E460017BE0180D8901436153616361736120638
:106E5600D8A0130603AEEFD7000E196E17AE16D0E4
:106E6600FF0E1414096EFF0E15140A6EFF0E16148B
:106E76000B6E7F0E17140C6E09500A100B100C10B7
:106E8600D8A402D001A002D0010E196E1950D8B4B0
:106E96001FD0010E0126000E02220322042204A0A6
:106EA60017D001C009F002C00AF003C00BF004C0FD
:106EB6000CF00C340C320B320A32093209C001F0E4
:106EC6000AC002F00BC003F00CC004F0124A132AE9
:106ED60013BE10D0135003E11228D8A00BD0000E19
:106EE600136E1268000E016E000E026E000E036E27
:106EF600000E046E13BE05D0135011E11204D8B073
:106F06000ED0000E136E000E126E000E016E000EF5
:106F1600026E000E036E000E046E000E0D6E12C0A1
:106F260018F018A002D0038E01D0039ED890183016
:106F3600046E0D50041201C001F002C002F003C03D
:106F460003F004C004F012003650800B436E365036
:106F56003624456E35BE45804550D8B40DD04528FB
:106F6600D8A408D0000E336E000E346E000E356EB7
:106F7600000E366E358E06D0000E336E000E346E61
:106F8600000E356E000E366E3A50800B446E43503E
:106F96004418D8A4438C3A503A24446E39BE4480EF
:106FA6004450D8B40DD04428D8A408D0000E376E6B
:106FB600000E386E000E396E000E3A6E398E06D00F
:106FC600000E376E000E386E000E396E000E3A6EE9
:106FD6004550445CD8B022D043AC02D0800E431A50
:106FE60045C046F044C045F046C044F033C046F0C4
:106FF60037C033F046C037F034C046F038C034F0FE
:1070060046C038F035C046F039C035F046C039F0D4
:1070160036C046F03AC036F046C03AF0000E466E2C
:1070260045503B6E3C6A3B1E3C1E3B4A3C2A445044
:107036003D6E3E6A3B503D263C503E223EBE2CD025
:107046003E5004E11A0E3D5CD8A026D033503410D1
:1070560035103610D8B402D0010E01D0000E466E9F
:10706600000E336E000E346E000E356E000E366E58
:1070760044C045F015D046A005D0D8904630010949
:10708600466E02D0D890463233B0468E363436320B
:10709600353234323332452A4450455CD8A0EBD7DA
:1070A60043BC29D04550D8A409D0000E336E000E3B
:1070B600346E000E356E000E366E120037503326D3
:1070C60038503422395035223A50362236A083D0F1
:1070D60046A006D0D890463246500109466E02D0E8
:1070E600D890463233B0468E363436323532343264
:1070F6003332452A70D03750335C385034583950C3
:1071060035583650800A3B6E3A50800A3B58D8B004
:1071160036D033C03BF034C03CF035C03DF036C00D
:107126003EF03B1E3C1E3D1E3E1E3B2A000E3C22F0
:107136003D223E2237503B243F6E38503C20406E65
:1071460039503D20416E3A503E20426EFF0E3F249C
:10715600336EFF0E4020346EFF0E4120356EFF0E5B
:107166004220366E800E431A466C4650D8A40FD085
:10717600010E3326000E34223522362208D037502F
:10718600335E3850345A3950355A3A50365A33509D
:10719600341035103610D8A41CD04650D8A419D0B7
:1071A600000E336E000E346E000E356E000E366E17
:1071B6001200D890333634363536363646BE3380EE
:1071C60046A002D0D88001D0D89046364550D8A4E3
:1071D600450635AEEED7000E446E46AE0AD046C022
:1071E6003BF07F0E3B16D8A402D033A002D0010E8E
:1071F600446E4450D8B420D0010E3326000E3422FB
:107206003522362236A018D033C03BF034C03CF0CD
:1072160035C03DF036C03EF03E343E323D323C3263
:107226003B323BC033F03CC034F03DC035F03EC08D
:1072360036F04528D8A4452A4528D8B403D0455069
:10724600D8A40DD0000E336E000E346E000E356ECF
:10725600000E366E4550D8A402D0000E436E45A0EF
:1072660002D0358E01D0359ED8904530366E43BE5D
:10727600368E33C033F034C034F035C035F036C006
:1072860036F012001D50800B266E1D501D242C6EEC
:107296001CBE2C802C50D8B40DD02C28D8A408D0D5
:1072A600000E1A6E000E1B6E000E1C6E000E1D6E7A
:1072B6001C8E08D0000E1A6E000E1B6E000E1C6E81
:1072C600000E1D6E2150800B261A215021242B6E94
:1072D60020BE2B802B50D8B40DD02B28D8A408D094
:1072E600000E1E6E000E1F6E000E206E000E216E2A
:1072F600208E08D0000E1E6E000E1F6E000E206E31
:10730600000E216E2B50D8B403D02C50D8A409D02F
:10731600000E1A6E000E1B6E000E1C6E000E1D6E09
:10732600120020501A02F3CF31F0F4CF32F0315070
:10733600276E286A296A2A6A32502D6E2E6A2F6AAB
:10734600306A1F501B02F3CF31F0F4CF32F03150C8
:107356002726000E282229222A2232502D26000E08
:107366002E222F2230221E501C02F3CF31F0F4CFF2
:1073760032F031502726000E282229222A223250A6
:107386002D26000E2E222F22302229C02AF028C0B8
:1073960029F027C028F0276A1E501B02F3CF31F0D0
:1073A600F4CF32F03150272632502822000E2922FF
:1073B600000E2A221F501A02F3CF31F0F4CF32F01A
:1073C6003150272632502822000E2922000E2A226A
:1073D60029C02AF028C029F027C028F0276A1E50A5
:1073E6001A02F3CF31F0F4CF32F031502726325063
:1073F6002822000E2922000E2A2220501B02F3CF3B
:1074060031F0F4CF32F031502D2632502E22000EBC
:107416002F22000E30221F501C02F3CF31F0F4CF82
:1074260032F031502D2632502E22000E2F22000E21
:10743600302220501C02F3CF31F0F4CF32F031501D
:10744600226E3250236E246A256A24C025F023C09A
:1074560024F022C023F0226A22502D2623502E2209
:1074660024502F222550302227C022F028C023F096
:1074760029C024F02AC025F0190E05D0D89025324F
:10748600243223322232E82EF9D722502D262350D9
:107496002E2224502F222550302229C02AF028C01F
:1074A60029F027C028F0276A2B502CC022F0236A27
:1074B6002226000E2322820E2224316EFF0E232066
:1074C600326E0FD0D8902D362E362F3630362ABE55
:1074D6002D80D8902736283629362A363106D8A068
:1074E60032062FAEEFD7000E2B6E2AAE16D0FF0E49
:1074F6002714226EFF0E2814236EFF0E2914246E05
:107506007F0E2A14256E2250231024102510D8A48D
:1075160002D02DA002D0010E2B6E2B50D8B41FD056
:10752600010E2D26000E2E222F22302230A017D03B
:107536002DC022F02EC023F02FC024F030C025F03D
:107546002534253224322332223222C02DF023C0A4
:107556002EF024C02FF025C030F0314A322A32BE38
:107566000DD0325003E13128D8A008D0000E2D6E80
:10757600000E2E6E800E2F6E7F0E20D032BE05D0EE
:1075860032500EE13104D8B00BD0000E2D6E000E35
:107596002E6E000E2F6E000E306E000E266E0FD071
:1075A60031C02CF0FF0E2D16FF0E2E167F0E2F1655
:1075B600000E30162CB02F8ED8902C30306E265000
:1075C60030122DC01AF02EC01BF02FC01CF030C098
:1075D6001DF01200D38CD38AD388000E936E800ED2
:1075E6000F6E250E106E000E116E000E126E0FEC51
:1075F60035F0D59CD59AD586000E5A6E000E5B6E78
:10760600000E5C6E000E5D6E000E616E000E606E0A
:10761600000E5F6E000E5E6E000E596E050E59640A
:1076260001D00CD05950010D530EF324D96E000E23
:10763600F420DA6E2D0EDF6E592AF0D79EAA70D28C
:10764600530E016E000E026E000E046E060E036EE1
:1076560024EC34F05350016E026A036A046A000E89
:10766600A5EC35F001C05AF002C05BF003C05CF037
:1076760004C05DF0000E376E000E386E7A0E396E5D
:10768600440E3A6E000E1E6E800E1F6E3B0E206E6E
:10769600450E216E000E056E000E066E340E076E48
:1076A600430E086E5AC001F05BC002F05CC003F0E6
:1076B6005DC004F04DEC36F001C01AF002C01BF0BC
:1076C60003C01CF004C01DF045EC39F01AC033F0BD
:1076D6001BC034F01CC035F01DC036F0A7EC37F0E7
:1076E60033C047F034C048F035C049F036C04AF0E0
:1076F600A1EC34F047C060F048C061F060505E24F1
:107706005E6E61505F205F6E818060C001F061C077
:1077160002F012EC34F081905450016E026A036A52
:10772600046A000EA5EC35F001C05AF002C05BF009
:1077360003C05CF004C05DF0000E376E000E386EBC
:107746007A0E396E440E3A6E000E1E6E800E1F6E55
:107756003B0E206E450E216E000E056E000E066E67
:10776600340E076E430E086E5AC001F05BC002F07D
:107776005CC003F05DC004F04DEC36F001C01AF0B9
:1077860002C01BF003C01CF004C01DF045EC39F02C
:107796001AC033F01BC034F01CC035F01DC036F0E3
:1077A600A7EC37F033C047F034C048F035C049F095
:1077B60036C04AF0A1EC34F047C060F048C061F032
:1077C60060505E245E6E61505F205F6E818260C095
:1077D60001F061C002F012EC34F081925550016E56
:1077E600026A036A046A000EA5EC35F001C05AF07D
:1077F60002C05BF003C05CF004C05DF0000E376EA3
:10780600000E386E7A0E396E440E3A6E000E1E6EFB
:10781600800E1F6E3B0E206E450E216E000E056E0D
:10782600000E066E340E076E430E086E5AC001F047
:107836005BC002F05CC003F05DC004F04DEC36F0B6
:1078460001C01AF002C01BF003C01CF004C01DF0FA
:1078560045EC39F01AC033F01BC034F01CC035F0CB
:107866001DC036F0A7EC37F033C047F034C048F0FF
:1078760035C049F036C04AF0A1EC34F047C060F09C
:1078860048C061F060505E245E6E61505F205F6E9E
:10789600818460C001F061C002F012EC34F0819482
:1078A6005650016E026A036A046A000EA5EC35F0B2
:1078B60001C05AF002C05BF003C05CF004C05DF08A
:1078C600000E376E000E386E7A0E396E440E3A6E22
:1078D600000E1E6E800E1F6E3B0E206E450E216E34
:1078E600000E056E000E066E340E076E430E086E11
:1078F6005AC001F05BC002F05CC003F05DC004F04A
:107906004DEC36F001C01AF002C01BF003C01CF0AB
:1079160004C01DF045EC39F01AC033F01BC034F03A
:107926001CC035F01DC036F0A7EC37F033C047F069
:1079360034C048F035C049F036C04AF0A1EC34F006
:1079460047C060F048C061F060505E245E6E6150D2
:107956005F205F6E818660C001F061C002F012ECAC
:1079660034F081965750016E026A036A046A000E6B
:10797600A5EC35F001C05AF002C05BF003C05CF024
:1079860004C05DF0000E376E000E386E7A0E396E4A
:10799600440E3A6E000E1E6E800E1F6E3B0E206E5B
:1079A600450E216E000E056E000E066E340E076E35
:1079B600430E086E5AC001F05BC002F05CC003F0D3
:1079C6005DC004F04DEC36F001C01AF002C01BF0A9
:1079D60003C01CF004C01DF045EC39F01AC033F0AA
:1079E6001BC034F01CC035F01DC036F0A7EC37F0D4
:1079F60033C047F034C048F035C049F036C04AF0CD
:107A0600A1EC34F047C060F048C061F060505E24DD
:107A16005E6E61505F205F6E818860C001F061C05C
:107A260002F012EC34F081985850016E026A036A33
:107A3600046A000EA5EC35F001C05AF002C05BF0F6
:107A460003C05CF004C05DF0000E376E000E386EA9
:107A56007A0E396E440E3A6E000E1E6E800E1F6E42
:107A66003B0E206E450E216E000E056E000E066E54
:107A7600340E076E430E086E5AC001F05BC002F06A
:107A86005CC003F05DC004F04DEC36F001C01AF0A6
:107A960002C01BF003C01CF004C01DF045EC39F019
:107AA6001AC033F01BC034F01CC035F01DC036F0D0
:107AB600A7EC37F033C047F034C048F035C049F082
:107AC60036C04AF0A1EC34F047C060F048C061F01F
:107AD60060505E245E6E61505F205F6E818A60C07A
:107AE60001F061C002F012EC34F0819A5EC051F0F0
:107AF6005FC052F0511E521E514A522A400E512466
:107B0600606E9C0E5220616E818C60C001F061C077
:107B160002F012EC34F0818C000E5F6E000E5E6E89
:107B2600ABA267D2AB98AB8889D55EC051F05FC077
:107B360052F0511E521E514A522A400E5124606E76
:107B46009C0E5220616E60C001F061C002F012EC22
:107B560034F0000E5F6E000E5E6E5350016E026AC8
:107B6600036A046A000EA5EC35F001C05AF002C0A3
:107B76005BF003C05CF004C05DF0000E376E000ED3
:107B8600386E7A0E396E440E3A6E000E1E6E800EF8
:107B96001F6E3B0E206E450E216E000E056E000E0A
:107BA600066E340E076E430E086E5AC001F05BC0B7
:107BB60002F05CC003F05DC004F04DEC36F001C08D
:107BC6001AF002C01BF003C01CF004C01DF045EC07
:107BD60039F01AC033F01BC034F01CC035F01DC09C
:107BE60036F0A7EC37F033C047F034C048F035C064
:107BF60049F036C04AF0A1EC34F047C060F048C006
:107C060061F060505E245E6E61505F205F6E818021
:107C160060C001F061C002F012EC34F08190545063
:107C2600016E026A036A046A000EA5EC35F001C013
:107C36005AF002C05BF003C05CF004C05DF0000EB9
:107C4600376E000E386E7A0E396E440E3A6E000E9E
:107C56001E6E800E1F6E3B0E206E450E216E000EB0
:107C6600056E000E066E340E076E430E086E5AC081
:107C760001F05BC002F05CC003F05DC004F04DECA7
:107C860036F001C01AF002C01BF003C01CF004C09D
:107C96001DF045EC39F01AC033F01BC034F01CC09F
:107CA60035F01DC036F0A7EC37F033C047F034C0CE
:107CB60048F035C049F036C04AF0A1EC34F047C070
:107CC60060F048C061F060505E245E6E61505F20D7
:107CD6005F6E818260C001F061C002F012EC34F088
:107CE60081925550016E026A036A046A000EA5EC81
:107CF60035F001C05AF002C05BF003C05CF004C06E
:107D06005DF0000E376E000E386E7A0E396E440E38
:107D16003A6E000E1E6E800E1F6E3B0E206E450ED6
:107D2600216E000E056E000E066E340E076E430EB3
:107D3600086E5AC001F05BC002F05CC003F05DC083
:107D460004F04DEC36F001C01AF002C01BF003C07F
:107D56001CF004C01DF045EC39F01AC033F01BC00E
:107D660034F01CC035F01DC036F0A7EC37F033C038
:107D760047F034C048F035C049F036C04AF0A1ECAF
:107D860034F047C060F048C061F060505E245E6E1B
:107D960061505F205F6E818460C001F061C002F0B7
:107DA60012EC34F081945650016E026A036A046A3A
:107DB600000EA5EC35F001C05AF002C05BF003C01E
:107DC6005CF004C05DF0000E376E000E386E7A0E61
:107DD600396E440E3A6E000E1E6E800E1F6E3B0EFE
:107DE600206E450E216E000E056E000E066E340ED8
:107DF600076E430E086E5AC001F05BC002F05CC00D
:107E060003F05DC004F04DEC36F001C01AF002C07C
:107E16001BF003C01CF004C01DF045EC39F01AC07D
:107E260033F01BC034F01CC035F01DC036F0A7EC93
:107E360037F033C047F034C048F035C049F036C09B
:107E46004AF0A1EC34F047C060F048C061F06050E1
:107E56005E245E6E61505F205F6E818660C001F0B9
:107E660061C002F012EC34F081965750016E026A3E
:107E7600036A046A000EA5EC35F001C05AF002C090
:107E86005BF003C05CF004C05DF0000E376E000EC0
:107E9600386E7A0E396E440E3A6E000E1E6E800EE5
:107EA6001F6E3B0E206E450E216E000E056E000EF7
:107EB600066E340E076E430E086E5AC001F05BC0A4
:107EC60002F05CC003F05DC004F04DEC36F001C07A
:107ED6001AF002C01BF003C01CF004C01DF045ECF4
:107EE60039F01AC033F01BC034F01CC035F01DC089
:107EF60036F0A7EC37F033C047F034C048F035C051
:107F060049F036C04AF0A1EC34F047C060F048C0F2
:107F160061F060505E245E6E61505F205F6E818806
:107F260060C001F061C002F012EC34F08198585044
:107F3600016E026A036A046A000EA5EC35F001C000
:107F46005AF002C05BF003C05CF004C05DF0000EA6
:107F5600376E000E386E7A0E396E440E3A6E000E8B
:107F66001E6E800E1F6E3B0E206E450E216E000E9D
:107F7600056E000E066E340E076E430E086E5AC06E
:107F860001F05BC002F05CC003F05DC004F04DEC94
:107F960036F001C01AF002C01BF003C01CF004C08A
:107FA6001DF045EC39F01AC033F01BC034F01CC08C
:107FB60035F01DC036F0A7EC37F033C047F034C0BB
:107FC60048F035C049F036C04AF0A1EC34F047C05D
:107FD60060F048C061F060505E245E6E61505F20C4
:107FE6005F6E818A60C001F061C002F012EC34F06D
:0A7FF600819A9EBA21EF3BF098D566
:020000040020DA
:08000000FFFFFFFFFFFFFFFF00
:020000040030CA
:0E000000FF081F1EFF8381FF0FC00FE00F409F
:00000001FF
